{
  "_format": "hh-sol-artifact-1",
  "contractName": "VotingPlatform",
  "sourceName": "contracts/VotingPlatform.sol",
  "abi": [
    {
      "inputs": [
        {
          "internalType": "address",
          "name": "_creator",
          "type": "address"
        },
        {
          "internalType": "uint256",
          "name": "_topicIndex",
          "type": "uint256"
        },
        {
          "internalType": "address",
          "name": "_voter",
          "type": "address"
        }
      ],
      "name": "allowVoter",
      "outputs": [],
      "stateMutability": "nonpayable",
      "type": "function"
    },
    {
      "inputs": [
        {
          "internalType": "address",
          "name": "_creator",
          "type": "address"
        },
        {
          "internalType": "uint256",
          "name": "_topicIndex",
          "type": "uint256"
        },
        {
          "internalType": "string",
          "name": "_optionName",
          "type": "string"
        }
      ],
      "name": "createOption",
      "outputs": [],
      "stateMutability": "nonpayable",
      "type": "function"
    },
    {
      "inputs": [
        {
          "internalType": "string",
          "name": "_question",
          "type": "string"
        },
        {
          "internalType": "uint256",
          "name": "_expiryTime",
          "type": "uint256"
        }
      ],
      "name": "createTopic",
      "outputs": [],
      "stateMutability": "nonpayable",
      "type": "function"
    },
    {
      "inputs": [
        {
          "internalType": "address",
          "name": "_creator",
          "type": "address"
        },
        {
          "internalType": "uint256",
          "name": "_topicIndex",
          "type": "uint256"
        },
        {
          "internalType": "uint256",
          "name": "_optionIndex",
          "type": "uint256"
        }
      ],
      "name": "getOptionDetails",
      "outputs": [
        {
          "internalType": "string",
          "name": "optionName",
          "type": "string"
        },
        {
          "internalType": "uint256",
          "name": "voteCount",
          "type": "uint256"
        }
      ],
      "stateMutability": "view",
      "type": "function"
    },
    {
      "inputs": [
        {
          "internalType": "address",
          "name": "_creator",
          "type": "address"
        },
        {
          "internalType": "uint256",
          "name": "_topicIndex",
          "type": "uint256"
        }
      ],
      "name": "hasVoted",
      "outputs": [
        {
          "internalType": "bool",
          "name": "",
          "type": "bool"
        }
      ],
      "stateMutability": "view",
      "type": "function"
    },
    {
      "inputs": [
        {
          "internalType": "address",
          "name": "_creator",
          "type": "address"
        },
        {
          "internalType": "uint256",
          "name": "_topicIndex",
          "type": "uint256"
        }
      ],
      "name": "isRegistered",
      "outputs": [
        {
          "internalType": "bool",
          "name": "",
          "type": "bool"
        }
      ],
      "stateMutability": "view",
      "type": "function"
    },
    {
      "inputs": [
        {
          "internalType": "address",
          "name": "_creator",
          "type": "address"
        },
        {
          "internalType": "uint256",
          "name": "_topicIndex",
          "type": "uint256"
        }
      ],
      "name": "registerVoter",
      "outputs": [],
      "stateMutability": "nonpayable",
      "type": "function"
    },
    {
      "inputs": [
        {
          "internalType": "address",
          "name": "_creator",
          "type": "address"
        },
        {
          "internalType": "uint256",
          "name": "_topicIndex",
          "type": "uint256"
        },
        {
          "internalType": "address",
          "name": "_voter",
          "type": "address"
        }
      ],
      "name": "rejectVoter",
      "outputs": [],
      "stateMutability": "nonpayable",
      "type": "function"
    },
    {
      "inputs": [
        {
          "internalType": "address",
          "name": "_creator",
          "type": "address"
        },
        {
          "internalType": "uint256",
          "name": "_topicIndex",
          "type": "uint256"
        },
        {
          "internalType": "uint256",
          "name": "_optionIndex",
          "type": "uint256"
        }
      ],
      "name": "vote",
      "outputs": [],
      "stateMutability": "nonpayable",
      "type": "function"
    }
  ],
  "bytecode": "0x608060405234801561001057600080fd5b506001600081905550611a50806100286000396000f3fe608060405234801561001057600080fd5b50600436106100935760003560e01c8063a8f1602c11610066578063a8f1602c14610131578063c5c8e17314610161578063cbea81ef1461017d578063d81c4c5714610199578063fe304a8b146101b557610093565b80632a4a1b7314610098578063416745f8146100b457806342545825146100e55780639258859214610115575b600080fd5b6100b260048036038101906100ad919061120a565b6101d1565b005b6100ce60048036038101906100c9919061120a565b610494565b6040516100dc929190611420565b60405180910390f35b6100ff60048036038101906100fa9190611108565b6105b3565b60405161010c9190611405565b60405180910390f35b61012f600480360381019061012a919061119b565b61065e565b005b61014b60048036038101906101469190611108565b610816565b6040516101589190611405565b60405180910390f35b61017b6004803603810190610176919061125d565b6108c1565b005b61019760048036038101906101929190611108565b610a2b565b005b6101b360048036038101906101ae9190611148565b610b83565b005b6101cf60048036038101906101ca9190611148565b610d75565b005b6101d9610f57565b8282600160008373ffffffffffffffffffffffffffffffffffffffff1673ffffffffffffffffffffffffffffffffffffffff168152602001908152602001600020600082815260200190815260200160002060040160003373ffffffffffffffffffffffffffffffffffffffff1673ffffffffffffffffffffffffffffffffffffffff16815260200190815260200160002060000160009054906101000a900460ff166102bb576040517f08c379a00000000000000000000000000000000000000000000000000000000081526004016102b2906114d0565b60405180910390fd5b6000600160008773ffffffffffffffffffffffffffffffffffffffff1673ffffffffffffffffffffffffffffffffffffffff168152602001908152602001600020600086815260200190815260200160002090508060040160003373ffffffffffffffffffffffffffffffffffffffff1673ffffffffffffffffffffffffffffffffffffffff16815260200190815260200160002060000160019054906101000a900460ff16156103a1576040517f08c379a000000000000000000000000000000000000000000000000000000000815260040161039890611490565b60405180910390fd5b806003018054905084106103ea576040517f08c379a00000000000000000000000000000000000000000000000000000000081526004016103e190611470565b60405180910390fd5b806003018481548110610400576103ff61178c565b5b90600052602060002090600202016001016000815480929190610422906116e5565b919050555060018160040160003373ffffffffffffffffffffffffffffffffffffffff1673ffffffffffffffffffffffffffffffffffffffff16815260200190815260200160002060000160016101000a81548160ff02191690831515021790555050505061048f610fa7565b505050565b6060600080600160008773ffffffffffffffffffffffffffffffffffffffff1673ffffffffffffffffffffffffffffffffffffffff1681526020019081526020016000206000868152602001908152602001600020905060008160030185815481106105035761050261178c565b5b9060005260206000209060020201905080600001805461052290611682565b80601f016020809104026020016040519081016040528092919081815260200182805461054e90611682565b801561059b5780601f106105705761010080835404028352916020019161059b565b820191906000526020600020905b81548152906001019060200180831161057e57829003601f168201915b50505050509350806001015492505050935093915050565b6000600160008473ffffffffffffffffffffffffffffffffffffffff1673ffffffffffffffffffffffffffffffffffffffff168152602001908152602001600020600083815260200190815260200160002060040160003373ffffffffffffffffffffffffffffffffffffffff1673ffffffffffffffffffffffffffffffffffffffff16815260200190815260200160002060000160019054906101000a900460ff16905092915050565b610666610f57565b8282600160008373ffffffffffffffffffffffffffffffffffffffff1673ffffffffffffffffffffffffffffffffffffffff168152602001908152602001600020600082815260200190815260200160002060000160009054906101000a900473ffffffffffffffffffffffffffffffffffffffff1673ffffffffffffffffffffffffffffffffffffffff163373ffffffffffffffffffffffffffffffffffffffff1614610749576040517f08c379a0000000000000000000000000000000000000000000000000000000008152600401610740906114f0565b60405180910390fd5b6000600160008773ffffffffffffffffffffffffffffffffffffffff1673ffffffffffffffffffffffffffffffffffffffff168152602001908152602001600020600086815260200190815260200160002090506107a5610fb1565b8481600001819052508160030181908060018154018082558091505060019003906000526020600020906002020160009091909190915060008201518160000190805190602001906107f8929190610fcb565b5060208201518160010155505050505050610811610fa7565b505050565b6000600160008473ffffffffffffffffffffffffffffffffffffffff1673ffffffffffffffffffffffffffffffffffffffff168152602001908152602001600020600083815260200190815260200160002060040160003373ffffffffffffffffffffffffffffffffffffffff1673ffffffffffffffffffffffffffffffffffffffff16815260200190815260200160002060000160009054906101000a900460ff16905092915050565b6108c9610f57565b6000600260003373ffffffffffffffffffffffffffffffffffffffff1673ffffffffffffffffffffffffffffffffffffffff1681526020019081526020016000205490506000600160003373ffffffffffffffffffffffffffffffffffffffff1673ffffffffffffffffffffffffffffffffffffffff16815260200190815260200160002060008381526020019081526020016000209050338160000160006101000a81548173ffffffffffffffffffffffffffffffffffffffff021916908373ffffffffffffffffffffffffffffffffffffffff160217905550838160010190805190602001906109bc929190610fcb565b508281600201819055506001600260003373ffffffffffffffffffffffffffffffffffffffff1673ffffffffffffffffffffffffffffffffffffffff1681526020019081526020016000206000828254610a1691906115a2565b925050819055505050610a27610fa7565b5050565b610a33610f57565b6000600160008473ffffffffffffffffffffffffffffffffffffffff1673ffffffffffffffffffffffffffffffffffffffff168152602001908152602001600020600083815260200190815260200160002090508060040160003373ffffffffffffffffffffffffffffffffffffffff1673ffffffffffffffffffffffffffffffffffffffff16815260200190815260200160002060000160009054906101000a900460ff1615610b19576040517f08c379a0000000000000000000000000000000000000000000000000000000008152600401610b10906114b0565b60405180910390fd5b60018160040160003373ffffffffffffffffffffffffffffffffffffffff1673ffffffffffffffffffffffffffffffffffffffff16815260200190815260200160002060000160006101000a81548160ff02191690831515021790555050610b7f610fa7565b5050565b610b8b610f57565b8282600160008373ffffffffffffffffffffffffffffffffffffffff1673ffffffffffffffffffffffffffffffffffffffff168152602001908152602001600020600082815260200190815260200160002060000160009054906101000a900473ffffffffffffffffffffffffffffffffffffffff1673ffffffffffffffffffffffffffffffffffffffff163373ffffffffffffffffffffffffffffffffffffffff1614610c6e576040517f08c379a0000000000000000000000000000000000000000000000000000000008152600401610c65906114f0565b60405180910390fd5b6000600160008773ffffffffffffffffffffffffffffffffffffffff1673ffffffffffffffffffffffffffffffffffffffff1681526020019081526020016000206000868152602001908152602001600020905080600201544210610d08576040517f08c379a0000000000000000000000000000000000000000000000000000000008152600401610cff90611450565b60405180910390fd5b60018160040160008673ffffffffffffffffffffffffffffffffffffffff1673ffffffffffffffffffffffffffffffffffffffff16815260200190815260200160002060000160006101000a81548160ff021916908315150217905550505050610d70610fa7565b505050565b8282600160008373ffffffffffffffffffffffffffffffffffffffff1673ffffffffffffffffffffffffffffffffffffffff168152602001908152602001600020600082815260200190815260200160002060000160009054906101000a900473ffffffffffffffffffffffffffffffffffffffff1673ffffffffffffffffffffffffffffffffffffffff163373ffffffffffffffffffffffffffffffffffffffff1614610e58576040517f08c379a0000000000000000000000000000000000000000000000000000000008152600401610e4f906114f0565b60405180910390fd5b6000600160008773ffffffffffffffffffffffffffffffffffffffff1673ffffffffffffffffffffffffffffffffffffffff1681526020019081526020016000206000868152602001908152602001600020905080600201544210610ef2576040517f08c379a0000000000000000000000000000000000000000000000000000000008152600401610ee990611450565b60405180910390fd5b60008160040160008673ffffffffffffffffffffffffffffffffffffffff1673ffffffffffffffffffffffffffffffffffffffff16815260200190815260200160002060000160006101000a81548160ff021916908315150217905550505050505050565b60026000541415610f9d576040517f08c379a0000000000000000000000000000000000000000000000000000000008152600401610f9490611510565b60405180910390fd5b6002600081905550565b6001600081905550565b604051806040016040528060608152602001600081525090565b828054610fd790611682565b90600052602060002090601f016020900481019282610ff95760008555611040565b82601f1061101257805160ff1916838001178555611040565b82800160010185558215611040579182015b8281111561103f578251825591602001919060010190611024565b5b50905061104d9190611051565b5090565b5b8082111561106a576000816000905550600101611052565b5090565b600061108161107c84611555565b611530565b90508281526020810184848401111561109d5761109c6117ef565b5b6110a8848285611640565b509392505050565b6000813590506110bf816119ec565b92915050565b600082601f8301126110da576110d96117ea565b5b81356110ea84826020860161106e565b91505092915050565b60008135905061110281611a03565b92915050565b6000806040838503121561111f5761111e6117f9565b5b600061112d858286016110b0565b925050602061113e858286016110f3565b9150509250929050565b600080600060608486031215611161576111606117f9565b5b600061116f868287016110b0565b9350506020611180868287016110f3565b9250506040611191868287016110b0565b9150509250925092565b6000806000606084860312156111b4576111b36117f9565b5b60006111c2868287016110b0565b93505060206111d3868287016110f3565b925050604084013567ffffffffffffffff8111156111f4576111f36117f4565b5b611200868287016110c5565b9150509250925092565b600080600060608486031215611223576112226117f9565b5b6000611231868287016110b0565b9350506020611242868287016110f3565b9250506040611253868287016110f3565b9150509250925092565b60008060408385031215611274576112736117f9565b5b600083013567ffffffffffffffff811115611292576112916117f4565b5b61129e858286016110c5565b92505060206112af858286016110f3565b9150509250929050565b6112c28161160a565b82525050565b60006112d382611586565b6112dd8185611591565b93506112ed81856020860161164f565b6112f6816117fe565b840191505092915050565b600061130e602183611591565b91506113198261180f565b604082019050919050565b6000611331601483611591565b915061133c8261185e565b602082019050919050565b6000611354602683611591565b915061135f82611887565b604082019050919050565b6000611377602a83611591565b9150611382826118d6565b604082019050919050565b600061139a602d83611591565b91506113a582611925565b604082019050919050565b60006113bd602e83611591565b91506113c882611974565b604082019050919050565b60006113e0601f83611591565b91506113eb826119c3565b602082019050919050565b6113ff81611636565b82525050565b600060208201905061141a60008301846112b9565b92915050565b6000604082019050818103600083015261143a81856112c8565b905061144960208301846113f6565b9392505050565b6000602082019050818103600083015261146981611301565b9050919050565b6000602082019050818103600083015261148981611324565b9050919050565b600060208201905081810360008301526114a981611347565b9050919050565b600060208201905081810360008301526114c98161136a565b9050919050565b600060208201905081810360008301526114e98161138d565b9050919050565b60006020820190508181036000830152611509816113b0565b9050919050565b60006020820190508181036000830152611529816113d3565b9050919050565b600061153a61154b565b905061154682826116b4565b919050565b6000604051905090565b600067ffffffffffffffff8211156115705761156f6117bb565b5b611579826117fe565b9050602081019050919050565b600081519050919050565b600082825260208201905092915050565b60006115ad82611636565b91506115b883611636565b9250827fffffffffffffffffffffffffffffffffffffffffffffffffffffffffffffffff038211156115ed576115ec61172e565b5b828201905092915050565b600061160382611616565b9050919050565b60008115159050919050565b600073ffffffffffffffffffffffffffffffffffffffff82169050919050565b6000819050919050565b82818337600083830152505050565b60005b8381101561166d578082015181840152602081019050611652565b8381111561167c576000848401525b50505050565b6000600282049050600182168061169a57607f821691505b602082108114156116ae576116ad61175d565b5b50919050565b6116bd826117fe565b810181811067ffffffffffffffff821117156116dc576116db6117bb565b5b80604052505050565b60006116f082611636565b91507fffffffffffffffffffffffffffffffffffffffffffffffffffffffffffffffff8214156117235761172261172e565b5b600182019050919050565b7f4e487b7100000000000000000000000000000000000000000000000000000000600052601160045260246000fd5b7f4e487b7100000000000000000000000000000000000000000000000000000000600052602260045260246000fd5b7f4e487b7100000000000000000000000000000000000000000000000000000000600052603260045260246000fd5b7f4e487b7100000000000000000000000000000000000000000000000000000000600052604160045260246000fd5b600080fd5b600080fd5b600080fd5b600080fd5b6000601f19601f8301169050919050565b7f566f74696e6720686173206578706972656420666f72207468697320746f706960008201527f6300000000000000000000000000000000000000000000000000000000000000602082015250565b7f496e76616c6964206f7074696f6e20696e646578000000000000000000000000600082015250565b7f566f7465722068617320616c726561647920766f74656420666f72207468697360008201527f20746f7069630000000000000000000000000000000000000000000000000000602082015250565b7f566f74657220697320616c7265616479207265676973746572656420666f722060008201527f7468697320746f70696300000000000000000000000000000000000000000000602082015250565b7f596f7520617265206e6f742061207265676973746572656420766f746572206660008201527f6f72207468697320746f70696300000000000000000000000000000000000000602082015250565b7f4f6e6c792074686520746f7069632063726561746f722063616e20706572666f60008201527f726d207468697320616374696f6e000000000000000000000000000000000000602082015250565b7f5265656e7472616e637947756172643a207265656e7472616e742063616c6c00600082015250565b6119f5816115f8565b8114611a0057600080fd5b50565b611a0c81611636565b8114611a1757600080fd5b5056fea26469706673582212203521e11ec1b990fe37fa2f61bde822192c9ab5810dfd9534fc6abf319eb7ba5d64736f6c63430008060033",
  "linkReferences": {},
  "deployedLinkReferences": {}
}